:03000000020006F5
:03005F0002000399
:0300030002008B6D
:200062007E007F007CF47D01EC24FFFAED34FFFB8A048B05EA4B70F00EBE00010FC3EE949B
:20008200E8EF6480948340DC221200627594007593007592007591FF75960075950075B281
:2000A2000075B10075B40075B30075CA2075C90075CC0075CB0075E20075E1007590FF12E6
:2000C2000062AF90750C10750D27E4F50EF50F850882850983850AF0E50BC007120114AB30
:2000E20082AC83ADF0FED007EB4C4D4E7006B2B6B2CCB2CDEFB59004D2B78002C2B7050865
:12010200E4B5080C0509B50907050AB50AB6050B80B2A5
:20011400F9E50C450D450E450F60777800C308E50F20E73BE50C25E0F50CE50D33F50DE595
:200134000E33F50EE50F33F50FE582950CE583950DE5F0950EE9950F50D4C3E50F13F50F33
:20015400E50E13F50EE50D13F50DE50C13F50CE582950CFCE583950DFDE5F0950EFEE99577
:200174000F4007F98EF08D838C82C3E50F13F50FE50E13F50EE50D13F50DE50C13F50CD8C5
:03019400CEE9228F
:06003500E478FFF6D8FD9F
:200013007900E94400601B7A0090019B780175A000E493F2A308B8000205A0D9F4DAF275F7
:02003300A0FF2C
:20003B007800E84400600A790175A000E4F309D8FC7800E84400600C7900900001E4F0A3C3
:04005B00D8FCD9FAFA
:0D00060075810F120197E58260030200036F
:04019700758200224B
:00000001FF
